{
  "_format": "hh-sol-artifact-1",
  "contractName": "FaucetToken",
  "sourceName": "contracts/FaucetToken.sol",
  "abi": [
    {
      "inputs": [
        {
          "internalType": "contract ERC20",
          "name": "_token",
          "type": "address"
        },
        {
          "internalType": "uint256",
          "name": "_faucetAmount",
          "type": "uint256"
        }
      ],
      "stateMutability": "nonpayable",
      "type": "constructor"
    },
    {
      "inputs": [
        {
          "internalType": "address",
          "name": "owner",
          "type": "address"
        }
      ],
      "name": "OwnableInvalidOwner",
      "type": "error"
    },
    {
      "inputs": [
        {
          "internalType": "address",
          "name": "account",
          "type": "address"
        }
      ],
      "name": "OwnableUnauthorizedAccount",
      "type": "error"
    },
    {
      "anonymous": false,
      "inputs": [
        {
          "indexed": true,
          "internalType": "address",
          "name": "previousOwner",
          "type": "address"
        },
        {
          "indexed": true,
          "internalType": "address",
          "name": "newOwner",
          "type": "address"
        }
      ],
      "name": "OwnershipTransferred",
      "type": "event"
    },
    {
      "inputs": [],
      "name": "claimCooldown",
      "outputs": [
        {
          "internalType": "uint256",
          "name": "",
          "type": "uint256"
        }
      ],
      "stateMutability": "view",
      "type": "function"
    },
    {
      "inputs": [],
      "name": "claimTokens",
      "outputs": [],
      "stateMutability": "nonpayable",
      "type": "function"
    },
    {
      "inputs": [],
      "name": "faucetAmount",
      "outputs": [
        {
          "internalType": "uint256",
          "name": "",
          "type": "uint256"
        }
      ],
      "stateMutability": "view",
      "type": "function"
    },
    {
      "inputs": [],
      "name": "lastClaimTime",
      "outputs": [
        {
          "internalType": "uint256",
          "name": "",
          "type": "uint256"
        }
      ],
      "stateMutability": "view",
      "type": "function"
    },
    {
      "inputs": [
        {
          "internalType": "address",
          "name": "",
          "type": "address"
        }
      ],
      "name": "lastClaimed",
      "outputs": [
        {
          "internalType": "uint256",
          "name": "",
          "type": "uint256"
        }
      ],
      "stateMutability": "view",
      "type": "function"
    },
    {
      "inputs": [],
      "name": "owner",
      "outputs": [
        {
          "internalType": "address",
          "name": "",
          "type": "address"
        }
      ],
      "stateMutability": "view",
      "type": "function"
    },
    {
      "inputs": [],
      "name": "renounceOwnership",
      "outputs": [],
      "stateMutability": "nonpayable",
      "type": "function"
    },
    {
      "inputs": [],
      "name": "token",
      "outputs": [
        {
          "internalType": "contract ERC20",
          "name": "",
          "type": "address"
        }
      ],
      "stateMutability": "view",
      "type": "function"
    },
    {
      "inputs": [
        {
          "internalType": "address",
          "name": "newOwner",
          "type": "address"
        }
      ],
      "name": "transferOwnership",
      "outputs": [],
      "stateMutability": "nonpayable",
      "type": "function"
    },
    {
      "inputs": [
        {
          "internalType": "uint256",
          "name": "_claimCooldown",
          "type": "uint256"
        }
      ],
      "name": "updateClaimCooldown",
      "outputs": [],
      "stateMutability": "nonpayable",
      "type": "function"
    },
    {
      "inputs": [
        {
          "internalType": "uint256",
          "name": "_faucetAmount",
          "type": "uint256"
        }
      ],
      "name": "updateFaucetAmount",
      "outputs": [],
      "stateMutability": "nonpayable",
      "type": "function"
    },
    {
      "inputs": [
        {
          "internalType": "uint256",
          "name": "amount",
          "type": "uint256"
        }
      ],
      "name": "withdraw",
      "outputs": [],
      "stateMutability": "nonpayable",
      "type": "function"
    }
  ],
  "bytecode": "0x60806040526201518060045534801561001757600080fd5b50604051610f84380380610f84833981810160405281019061003991906102bd565b33600073ffffffffffffffffffffffffffffffffffffffff168173ffffffffffffffffffffffffffffffffffffffff16036100ac5760006040517f1e4fbdf70000000000000000000000000000000000000000000000000000000081526004016100a3919061030c565b60405180910390fd5b6100bb8161014e60201b60201c565b50600081116100ff576040517f08c379a00000000000000000000000000000000000000000000000000000000081526004016100f690610384565b60405180910390fd5b81600160006101000a81548173ffffffffffffffffffffffffffffffffffffffff021916908373ffffffffffffffffffffffffffffffffffffffff1602179055508060028190555050506103a4565b60008060009054906101000a900473ffffffffffffffffffffffffffffffffffffffff169050816000806101000a81548173ffffffffffffffffffffffffffffffffffffffff021916908373ffffffffffffffffffffffffffffffffffffffff1602179055508173ffffffffffffffffffffffffffffffffffffffff168173ffffffffffffffffffffffffffffffffffffffff167f8be0079c531659141344cd1fd0a4f28419497f9722a3daafe3b4186f6b6457e060405160405180910390a35050565b600080fd5b600073ffffffffffffffffffffffffffffffffffffffff82169050919050565b600061024282610217565b9050919050565b600061025482610237565b9050919050565b61026481610249565b811461026f57600080fd5b50565b6000815190506102818161025b565b92915050565b6000819050919050565b61029a81610287565b81146102a557600080fd5b50565b6000815190506102b781610291565b92915050565b600080604083850312156102d4576102d3610212565b5b60006102e285828601610272565b92505060206102f3858286016102a8565b9150509250929050565b61030681610237565b82525050565b600060208201905061032160008301846102fd565b92915050565b600082825260208201905092915050565b7f43616e6e6f74206265206c6f776572207468616e207a65726f00000000000000600082015250565b600061036e601983610327565b915061037982610338565b602082019050919050565b6000602082019050818103600083015261039d81610361565b9050919050565b610bd1806103b36000396000f3fe608060405234801561001057600080fd5b50600436106100b45760003560e01c80638da5cb5b116100715780638da5cb5b146101515780639c2814301461016f578063c21bae0c1461018d578063f2fde38b146101ab578063fc0c546a146101c7578063fdea3657146101e5576100b4565b8063013eba92146100b95780630d286df9146100e9578063140e7563146101055780632e1a7d4d1461012157806348c54b9d1461013d578063715018a614610147575b600080fd5b6100d360048036038101906100ce91906107fb565b610203565b6040516100e09190610841565b60405180910390f35b61010360048036038101906100fe9190610888565b61021b565b005b61011f600480360381019061011a9190610888565b61022d565b005b61013b60048036038101906101369190610888565b61023f565b005b6101456102f2565b005b61014f61054a565b005b61015961055e565b60405161016691906108c4565b60405180910390f35b610177610587565b6040516101849190610841565b60405180910390f35b61019561058d565b6040516101a29190610841565b60405180910390f35b6101c560048036038101906101c091906107fb565b610593565b005b6101cf610619565b6040516101dc919061093e565b60405180910390f35b6101ed61063f565b6040516101fa9190610841565b60405180910390f35b60056020528060005260406000206000915090505481565b610223610645565b8060048190555050565b610235610645565b8060028190555050565b610247610645565b600160009054906101000a900473ffffffffffffffffffffffffffffffffffffffff1673ffffffffffffffffffffffffffffffffffffffff1663a9059cbb61028d61055e565b836040518363ffffffff1660e01b81526004016102ab929190610959565b6020604051808303816000875af11580156102ca573d6000803e3d6000fd5b505050506040513d601f19601f820116820180604052508101906102ee91906109ba565b5050565b600454600560003373ffffffffffffffffffffffffffffffffffffffff1673ffffffffffffffffffffffffffffffffffffffff1681526020019081526020016000205461033f9190610a16565b421015610381576040517f08c379a000000000000000000000000000000000000000000000000000000000815260040161037890610acd565b60405180910390fd5b600254600160009054906101000a900473ffffffffffffffffffffffffffffffffffffffff1673ffffffffffffffffffffffffffffffffffffffff166370a08231306040518263ffffffff1660e01b81526004016103df91906108c4565b602060405180830381865afa1580156103fc573d6000803e3d6000fd5b505050506040513d601f19601f820116820180604052508101906104209190610b02565b1015610461576040517f08c379a000000000000000000000000000000000000000000000000000000000815260040161045890610b7b565b60405180910390fd5b600160009054906101000a900473ffffffffffffffffffffffffffffffffffffffff1673ffffffffffffffffffffffffffffffffffffffff1663a9059cbb336002546040518363ffffffff1660e01b81526004016104c0929190610959565b6020604051808303816000875af11580156104df573d6000803e3d6000fd5b505050506040513d601f19601f8201168201806040525081019061050391906109ba565b5042600560003373ffffffffffffffffffffffffffffffffffffffff1673ffffffffffffffffffffffffffffffffffffffff16815260200190815260200160002081905550565b610552610645565b61055c60006106cc565b565b60008060009054906101000a900473ffffffffffffffffffffffffffffffffffffffff16905090565b60025481565b60035481565b61059b610645565b600073ffffffffffffffffffffffffffffffffffffffff168173ffffffffffffffffffffffffffffffffffffffff160361060d5760006040517f1e4fbdf700000000000000000000000000000000000000000000000000000000815260040161060491906108c4565b60405180910390fd5b610616816106cc565b50565b600160009054906101000a900473ffffffffffffffffffffffffffffffffffffffff1681565b60045481565b61064d610790565b73ffffffffffffffffffffffffffffffffffffffff1661066b61055e565b73ffffffffffffffffffffffffffffffffffffffff16146106ca5761068e610790565b6040517f118cdaa70000000000000000000000000000000000000000000000000000000081526004016106c191906108c4565b60405180910390fd5b565b60008060009054906101000a900473ffffffffffffffffffffffffffffffffffffffff169050816000806101000a81548173ffffffffffffffffffffffffffffffffffffffff021916908373ffffffffffffffffffffffffffffffffffffffff1602179055508173ffffffffffffffffffffffffffffffffffffffff168173ffffffffffffffffffffffffffffffffffffffff167f8be0079c531659141344cd1fd0a4f28419497f9722a3daafe3b4186f6b6457e060405160405180910390a35050565b600033905090565b600080fd5b600073ffffffffffffffffffffffffffffffffffffffff82169050919050565b60006107c88261079d565b9050919050565b6107d8816107bd565b81146107e357600080fd5b50565b6000813590506107f5816107cf565b92915050565b60006020828403121561081157610810610798565b5b600061081f848285016107e6565b91505092915050565b6000819050919050565b61083b81610828565b82525050565b60006020820190506108566000830184610832565b92915050565b61086581610828565b811461087057600080fd5b50565b6000813590506108828161085c565b92915050565b60006020828403121561089e5761089d610798565b5b60006108ac84828501610873565b91505092915050565b6108be816107bd565b82525050565b60006020820190506108d960008301846108b5565b92915050565b6000819050919050565b60006109046108ff6108fa8461079d565b6108df565b61079d565b9050919050565b6000610916826108e9565b9050919050565b60006109288261090b565b9050919050565b6109388161091d565b82525050565b6000602082019050610953600083018461092f565b92915050565b600060408201905061096e60008301856108b5565b61097b6020830184610832565b9392505050565b60008115159050919050565b61099781610982565b81146109a257600080fd5b50565b6000815190506109b48161098e565b92915050565b6000602082840312156109d0576109cf610798565b5b60006109de848285016109a5565b91505092915050565b7f4e487b7100000000000000000000000000000000000000000000000000000000600052601160045260246000fd5b6000610a2182610828565b9150610a2c83610828565b9250828201905080821115610a4457610a436109e7565b5b92915050565b600082825260208201905092915050565b7f596f75206d7573742077616974206265666f726520636c61696d696e6720616760008201527f61696e2e00000000000000000000000000000000000000000000000000000000602082015250565b6000610ab7602483610a4a565b9150610ac282610a5b565b604082019050919050565b60006020820190508181036000830152610ae681610aaa565b9050919050565b600081519050610afc8161085c565b92915050565b600060208284031215610b1857610b17610798565b5b6000610b2684828501610aed565b91505092915050565b7f496e73756666696369656e742062616c616e636520696e206661756365742e00600082015250565b6000610b65601f83610a4a565b9150610b7082610b2f565b602082019050919050565b60006020820190508181036000830152610b9481610b58565b905091905056fea26469706673582212206c65323780174e94ee6eca8c05c492beda7e66ae9c82b41d9cc7527696e995e764736f6c634300081b0033",
  "linkReferences": {},
  "deployedLinkReferences": {}
}