{
  "_format": "hh-sol-artifact-1",
  "contractName": "TokenICO",
  "sourceName": "contracts/TokenICO.sol",
  "abi": [
    {
      "inputs": [
        {
          "internalType": "address",
          "name": "_tokenAddress",
          "type": "address"
        },
        {
          "internalType": "uint256",
          "name": "_totalTokensForSale",
          "type": "uint256"
        },
        {
          "internalType": "uint256",
          "name": "_tokenSalePrice",
          "type": "uint256"
        }
      ],
      "stateMutability": "nonpayable",
      "type": "constructor"
    },
    {
      "inputs": [
        {
          "internalType": "address",
          "name": "owner",
          "type": "address"
        }
      ],
      "name": "OwnableInvalidOwner",
      "type": "error"
    },
    {
      "inputs": [
        {
          "internalType": "address",
          "name": "account",
          "type": "address"
        }
      ],
      "name": "OwnableUnauthorizedAccount",
      "type": "error"
    },
    {
      "anonymous": false,
      "inputs": [
        {
          "indexed": true,
          "internalType": "address",
          "name": "previousOwner",
          "type": "address"
        },
        {
          "indexed": true,
          "internalType": "address",
          "name": "newOwner",
          "type": "address"
        }
      ],
      "name": "OwnershipTransferred",
      "type": "event"
    },
    {
      "inputs": [
        {
          "internalType": "uint256",
          "name": "amount",
          "type": "uint256"
        }
      ],
      "name": "buyToken",
      "outputs": [],
      "stateMutability": "payable",
      "type": "function"
    },
    {
      "inputs": [],
      "name": "getTokenDetail",
      "outputs": [
        {
          "internalType": "string",
          "name": "name",
          "type": "string"
        },
        {
          "internalType": "string",
          "name": "symbol",
          "type": "string"
        },
        {
          "internalType": "uint256",
          "name": "balance",
          "type": "uint256"
        },
        {
          "internalType": "uint256",
          "name": "supply",
          "type": "uint256"
        },
        {
          "internalType": "uint256",
          "name": "tokenPrice",
          "type": "uint256"
        },
        {
          "internalType": "address",
          "name": "_tokenAddress",
          "type": "address"
        }
      ],
      "stateMutability": "view",
      "type": "function"
    },
    {
      "inputs": [],
      "name": "owner",
      "outputs": [
        {
          "internalType": "address",
          "name": "",
          "type": "address"
        }
      ],
      "stateMutability": "view",
      "type": "function"
    },
    {
      "inputs": [],
      "name": "renounceOwnership",
      "outputs": [],
      "stateMutability": "nonpayable",
      "type": "function"
    },
    {
      "inputs": [],
      "name": "soldTokens",
      "outputs": [
        {
          "internalType": "uint256",
          "name": "",
          "type": "uint256"
        }
      ],
      "stateMutability": "view",
      "type": "function"
    },
    {
      "inputs": [],
      "name": "token",
      "outputs": [
        {
          "internalType": "contract ERC20",
          "name": "",
          "type": "address"
        }
      ],
      "stateMutability": "view",
      "type": "function"
    },
    {
      "inputs": [],
      "name": "tokenAddress",
      "outputs": [
        {
          "internalType": "address",
          "name": "",
          "type": "address"
        }
      ],
      "stateMutability": "view",
      "type": "function"
    },
    {
      "inputs": [],
      "name": "tokenSalePrice",
      "outputs": [
        {
          "internalType": "uint256",
          "name": "",
          "type": "uint256"
        }
      ],
      "stateMutability": "view",
      "type": "function"
    },
    {
      "inputs": [],
      "name": "totalTokensForSale",
      "outputs": [
        {
          "internalType": "uint256",
          "name": "",
          "type": "uint256"
        }
      ],
      "stateMutability": "view",
      "type": "function"
    },
    {
      "inputs": [
        {
          "internalType": "address",
          "name": "newOwner",
          "type": "address"
        }
      ],
      "name": "transferOwnership",
      "outputs": [],
      "stateMutability": "nonpayable",
      "type": "function"
    },
    {
      "inputs": [
        {
          "internalType": "address",
          "name": "_tokenAddress",
          "type": "address"
        }
      ],
      "name": "updateToken",
      "outputs": [],
      "stateMutability": "nonpayable",
      "type": "function"
    },
    {
      "inputs": [
        {
          "internalType": "uint256",
          "name": "_tokenSalePrice",
          "type": "uint256"
        }
      ],
      "name": "updateTokenSalePrice",
      "outputs": [],
      "stateMutability": "nonpayable",
      "type": "function"
    },
    {
      "inputs": [],
      "name": "withdraw",
      "outputs": [],
      "stateMutability": "nonpayable",
      "type": "function"
    },
    {
      "inputs": [],
      "name": "withdrawAllToken",
      "outputs": [],
      "stateMutability": "nonpayable",
      "type": "function"
    }
  ],
  "bytecode": "0x608060405234801561001057600080fd5b50604051611c60380380611c60833981810160405281019061003291906102aa565b33600073ffffffffffffffffffffffffffffffffffffffff168173ffffffffffffffffffffffffffffffffffffffff16036100a55760006040517f1e4fbdf700000000000000000000000000000000000000000000000000000000815260040161009c919061030c565b60405180910390fd5b6100b48161014d60201b60201c565b5082600160006101000a81548173ffffffffffffffffffffffffffffffffffffffff021916908373ffffffffffffffffffffffffffffffffffffffff16021790555082600560006101000a81548173ffffffffffffffffffffffffffffffffffffffff021916908373ffffffffffffffffffffffffffffffffffffffff1602179055508160048190555080600281905550505050610327565b60008060009054906101000a900473ffffffffffffffffffffffffffffffffffffffff169050816000806101000a81548173ffffffffffffffffffffffffffffffffffffffff021916908373ffffffffffffffffffffffffffffffffffffffff1602179055508173ffffffffffffffffffffffffffffffffffffffff168173ffffffffffffffffffffffffffffffffffffffff167f8be0079c531659141344cd1fd0a4f28419497f9722a3daafe3b4186f6b6457e060405160405180910390a35050565b600080fd5b600073ffffffffffffffffffffffffffffffffffffffff82169050919050565b600061024182610216565b9050919050565b61025181610236565b811461025c57600080fd5b50565b60008151905061026e81610248565b92915050565b6000819050919050565b61028781610274565b811461029257600080fd5b50565b6000815190506102a48161027e565b92915050565b6000806000606084860312156102c3576102c2610211565b5b60006102d18682870161025f565b93505060206102e286828701610295565b92505060406102f386828701610295565b9150509250925092565b61030681610236565b82525050565b600060208201905061032160008301846102fd565b92915050565b61192a806103366000396000f3fe6080604052600436106100dd5760003560e01c80637ad3def21161007f578063e86790eb11610059578063e86790eb14610248578063f2fde38b14610273578063fc0c546a1461029c578063ffdeb903146102c7576100dd565b80637ad3def2146101c95780638da5cb5b146101f25780639d76ea581461021d576100dd565b80633ccfd60b116100bb5780633ccfd60b146101455780635ed9ebfc1461015c57806360219c7b14610187578063715018a6146101b2576100dd565b806314870d2c146100e2578063289de615146100f95780632d296bf114610129575b600080fd5b3480156100ee57600080fd5b506100f76102f0565b005b34801561010557600080fd5b5061010e6104c4565b60405161012096959493929190610fa5565b60405180910390f35b610143600480360381019061013e9190611054565b610760565b005b34801561015157600080fd5b5061015a610ae2565b005b34801561016857600080fd5b50610171610b3a565b60405161017e9190611081565b60405180910390f35b34801561019357600080fd5b5061019c610b40565b6040516101a99190611081565b60405180910390f35b3480156101be57600080fd5b506101c7610b46565b005b3480156101d557600080fd5b506101f060048036038101906101eb91906110c8565b610b5a565b005b3480156101fe57600080fd5b50610207610be7565b60405161021491906110f5565b60405180910390f35b34801561022957600080fd5b50610232610c10565b60405161023f91906110f5565b60405180910390f35b34801561025457600080fd5b5061025d610c36565b60405161026a9190611081565b60405180910390f35b34801561027f57600080fd5b5061029a600480360381019061029591906110c8565b610c3c565b005b3480156102a857600080fd5b506102b1610cc2565b6040516102be919061116f565b60405180910390f35b3480156102d357600080fd5b506102ee60048036038101906102e99190611054565b610ce8565b005b6102f8610cfa565b6000600560009054906101000a900473ffffffffffffffffffffffffffffffffffffffff1673ffffffffffffffffffffffffffffffffffffffff166370a08231306040518263ffffffff1660e01b815260040161035591906110f5565b602060405180830381865afa158015610372573d6000803e3d6000fd5b505050506040513d601f19601f82011682018060405250810190610396919061119f565b9050600081116103db576040517f08c379a00000000000000000000000000000000000000000000000000000000081526004016103d290611218565b60405180910390fd5b600560009054906101000a900473ffffffffffffffffffffffffffffffffffffffff1673ffffffffffffffffffffffffffffffffffffffff1663a9059cbb610421610be7565b836040518363ffffffff1660e01b815260040161043f929190611238565b6020604051808303816000875af115801561045e573d6000803e3d6000fd5b505050506040513d601f19601f820116820180604052508101906104829190611299565b6104c1576040517f08c379a00000000000000000000000000000000000000000000000000000000081526004016104b890611312565b60405180910390fd5b50565b606080600080600080600560009054906101000a900473ffffffffffffffffffffffffffffffffffffffff1673ffffffffffffffffffffffffffffffffffffffff166306fdde036040518163ffffffff1660e01b8152600401600060405180830381865afa15801561053a573d6000803e3d6000fd5b505050506040513d6000823e3d601f19601f820116820180604052508101906105639190611458565b600560009054906101000a900473ffffffffffffffffffffffffffffffffffffffff1673ffffffffffffffffffffffffffffffffffffffff166395d89b416040518163ffffffff1660e01b8152600401600060405180830381865afa1580156105d0573d6000803e3d6000fd5b505050506040513d6000823e3d601f19601f820116820180604052508101906105f99190611458565b600560009054906101000a900473ffffffffffffffffffffffffffffffffffffffff1673ffffffffffffffffffffffffffffffffffffffff166370a08231306040518263ffffffff1660e01b815260040161065491906110f5565b602060405180830381865afa158015610671573d6000803e3d6000fd5b505050506040513d601f19601f82011682018060405250810190610695919061119f565b600560009054906101000a900473ffffffffffffffffffffffffffffffffffffffff1673ffffffffffffffffffffffffffffffffffffffff166318160ddd6040518163ffffffff1660e01b8152600401602060405180830381865afa158015610702573d6000803e3d6000fd5b505050506040513d601f19601f82011682018060405250810190610726919061119f565b600254600160009054906101000a900473ffffffffffffffffffffffffffffffffffffffff16955095509550955095509550909192939495565b6000349050600061077383600254610d81565b90508082146107b7576040517f08c379a00000000000000000000000000000000000000000000000000000000081526004016107ae90611513565b60405180910390fd5b600454836003546107c89190611562565b1115610809576040517f08c379a0000000000000000000000000000000000000000000000000000000008152600401610800906115e2565b60405180910390fd5b600560009054906101000a900473ffffffffffffffffffffffffffffffffffffffff1673ffffffffffffffffffffffffffffffffffffffff166370a08231306040518263ffffffff1660e01b815260040161086491906110f5565b602060405180830381865afa158015610881573d6000803e3d6000fd5b505050506040513d601f19601f820116820180604052508101906108a5919061119f565b8311156108e7576040517f08c379a00000000000000000000000000000000000000000000000000000000081526004016108de90611513565b60405180910390fd5b6000600560009054906101000a900473ffffffffffffffffffffffffffffffffffffffff1673ffffffffffffffffffffffffffffffffffffffff1663313ce5676040518163ffffffff1660e01b8152600401602060405180830381865afa158015610956573d6000803e3d6000fd5b505050506040513d601f19601f8201168201806040525081019061097a919061163b565b60ff169050600560009054906101000a900473ffffffffffffffffffffffffffffffffffffffff1673ffffffffffffffffffffffffffffffffffffffff1663a9059cbb3383600a6109cb919061179b565b876109d691906117e6565b6040518363ffffffff1660e01b81526004016109f3929190611238565b6020604051808303816000875af1158015610a12573d6000803e3d6000fd5b505050506040513d601f19601f82011682018060405250810190610a369190611299565b610a75576040517f08c379a0000000000000000000000000000000000000000000000000000000008152600401610a6c90611312565b60405180910390fd5b610a7d610be7565b73ffffffffffffffffffffffffffffffffffffffff166108fc849081150290604051600060405180830381858888f19350505050158015610ac2573d6000803e3d6000fd5b508360036000828254610ad59190611562565b9250508190555050505050565b610aea610cfa565b610af2610be7565b73ffffffffffffffffffffffffffffffffffffffff166108fc479081150290604051600060405180830381858888f19350505050158015610b37573d6000803e3d6000fd5b50565b60035481565b60045481565b610b4e610cfa565b610b586000610def565b565b610b62610cfa565b80600160006101000a81548173ffffffffffffffffffffffffffffffffffffffff021916908373ffffffffffffffffffffffffffffffffffffffff16021790555080600560006101000a81548173ffffffffffffffffffffffffffffffffffffffff021916908373ffffffffffffffffffffffffffffffffffffffff16021790555050565b60008060009054906101000a900473ffffffffffffffffffffffffffffffffffffffff16905090565b600160009054906101000a900473ffffffffffffffffffffffffffffffffffffffff1681565b60025481565b610c44610cfa565b600073ffffffffffffffffffffffffffffffffffffffff168173ffffffffffffffffffffffffffffffffffffffff1603610cb65760006040517f1e4fbdf7000000000000000000000000000000000000000000000000000000008152600401610cad91906110f5565b60405180910390fd5b610cbf81610def565b50565b600560009054906101000a900473ffffffffffffffffffffffffffffffffffffffff1681565b610cf0610cfa565b8060028190555050565b610d02610eb3565b73ffffffffffffffffffffffffffffffffffffffff16610d20610be7565b73ffffffffffffffffffffffffffffffffffffffff1614610d7f57610d43610eb3565b6040517f118cdaa7000000000000000000000000000000000000000000000000000000008152600401610d7691906110f5565b60405180910390fd5b565b60008183610d8f91906117e6565b90506000821480610daa5750828282610da89190611857565b145b610de9576040517f08c379a0000000000000000000000000000000000000000000000000000000008152600401610de0906118d4565b60405180910390fd5b92915050565b60008060009054906101000a900473ffffffffffffffffffffffffffffffffffffffff169050816000806101000a81548173ffffffffffffffffffffffffffffffffffffffff021916908373ffffffffffffffffffffffffffffffffffffffff1602179055508173ffffffffffffffffffffffffffffffffffffffff168173ffffffffffffffffffffffffffffffffffffffff167f8be0079c531659141344cd1fd0a4f28419497f9722a3daafe3b4186f6b6457e060405160405180910390a35050565b600033905090565b600081519050919050565b600082825260208201905092915050565b60005b83811015610ef5578082015181840152602081019050610eda565b60008484015250505050565b6000601f19601f8301169050919050565b6000610f1d82610ebb565b610f278185610ec6565b9350610f37818560208601610ed7565b610f4081610f01565b840191505092915050565b6000819050919050565b610f5e81610f4b565b82525050565b600073ffffffffffffffffffffffffffffffffffffffff82169050919050565b6000610f8f82610f64565b9050919050565b610f9f81610f84565b82525050565b600060c0820190508181036000830152610fbf8189610f12565b90508181036020830152610fd38188610f12565b9050610fe26040830187610f55565b610fef6060830186610f55565b610ffc6080830185610f55565b61100960a0830184610f96565b979650505050505050565b6000604051905090565b600080fd5b600080fd5b61103181610f4b565b811461103c57600080fd5b50565b60008135905061104e81611028565b92915050565b60006020828403121561106a5761106961101e565b5b60006110788482850161103f565b91505092915050565b60006020820190506110966000830184610f55565b92915050565b6110a581610f84565b81146110b057600080fd5b50565b6000813590506110c28161109c565b92915050565b6000602082840312156110de576110dd61101e565b5b60006110ec848285016110b3565b91505092915050565b600060208201905061110a6000830184610f96565b92915050565b6000819050919050565b600061113561113061112b84610f64565b611110565b610f64565b9050919050565b60006111478261111a565b9050919050565b60006111598261113c565b9050919050565b6111698161114e565b82525050565b60006020820190506111846000830184611160565b92915050565b60008151905061119981611028565b92915050565b6000602082840312156111b5576111b461101e565b5b60006111c38482850161118a565b91505092915050565b7f4e6f20746f6b656e20746f207769746864726177000000000000000000000000600082015250565b6000611202601483610ec6565b915061120d826111cc565b602082019050919050565b60006020820190508181036000830152611231816111f5565b9050919050565b600060408201905061124d6000830185610f96565b61125a6020830184610f55565b9392505050565b60008115159050919050565b61127681611261565b811461128157600080fd5b50565b6000815190506112938161126d565b92915050565b6000602082840312156112af576112ae61101e565b5b60006112bd84828501611284565b91505092915050565b7f546f6b656e207472616e73666572206661696c65640000000000000000000000600082015250565b60006112fc601583610ec6565b9150611307826112c6565b602082019050919050565b6000602082019050818103600083015261132b816112ef565b9050919050565b600080fd5b600080fd5b7f4e487b7100000000000000000000000000000000000000000000000000000000600052604160045260246000fd5b61137482610f01565b810181811067ffffffffffffffff821117156113935761139261133c565b5b80604052505050565b60006113a6611014565b90506113b2828261136b565b919050565b600067ffffffffffffffff8211156113d2576113d161133c565b5b6113db82610f01565b9050602081019050919050565b60006113fb6113f6846113b7565b61139c565b90508281526020810184848401111561141757611416611337565b5b611422848285610ed7565b509392505050565b600082601f83011261143f5761143e611332565b5b815161144f8482602086016113e8565b91505092915050565b60006020828403121561146e5761146d61101e565b5b600082015167ffffffffffffffff81111561148c5761148b611023565b5b6114988482850161142a565b91505092915050565b7f496e73756666696369656e742045746865722070726f766964656420666f722060008201527f74686520746f6b656e2070757263686173650000000000000000000000000000602082015250565b60006114fd603283610ec6565b9150611508826114a1565b604082019050919050565b6000602082019050818103600083015261152c816114f0565b9050919050565b7f4e487b7100000000000000000000000000000000000000000000000000000000600052601160045260246000fd5b600061156d82610f4b565b915061157883610f4b565b92508282019050808211156115905761158f611533565b5b92915050565b7f4e6f7420656e6f75676820746f6b656e73206c65667420746f2073656c6c0000600082015250565b60006115cc601e83610ec6565b91506115d782611596565b602082019050919050565b600060208201905081810360008301526115fb816115bf565b9050919050565b600060ff82169050919050565b61161881611602565b811461162357600080fd5b50565b6000815190506116358161160f565b92915050565b6000602082840312156116515761165061101e565b5b600061165f84828501611626565b91505092915050565b60008160011c9050919050565b6000808291508390505b60018511156116bf5780860481111561169b5761169a611533565b5b60018516156116aa5780820291505b80810290506116b885611668565b945061167f565b94509492505050565b6000826116d85760019050611794565b816116e65760009050611794565b81600181146116fc576002811461170657611735565b6001915050611794565b60ff84111561171857611717611533565b5b8360020a91508482111561172f5761172e611533565b5b50611794565b5060208310610133831016604e8410600b841016171561176a5782820a90508381111561176557611764611533565b5b611794565b6117778484846001611675565b9250905081840481111561178e5761178d611533565b5b81810290505b9392505050565b60006117a682610f4b565b91506117b183610f4b565b92506117de7fffffffffffffffffffffffffffffffffffffffffffffffffffffffffffffffff84846116c8565b905092915050565b60006117f182610f4b565b91506117fc83610f4b565b925082820261180a81610f4b565b9150828204841483151761182157611820611533565b5b5092915050565b7f4e487b7100000000000000000000000000000000000000000000000000000000600052601260045260246000fd5b600061186282610f4b565b915061186d83610f4b565b92508261187d5761187c611828565b5b828204905092915050565b7f4f766572666c6f77206572726f72000000000000000000000000000000000000600082015250565b60006118be600e83610ec6565b91506118c982611888565b602082019050919050565b600060208201905081810360008301526118ed816118b1565b905091905056fea26469706673582212200db2e36a9553557d3f505f1305b024cc6b37cb6818de6c5b9adb34db655a401864736f6c634300081b0033",
  "linkReferences": {},
  "deployedLinkReferences": {}
}