{
  "_format": "hh-sol-artifact-1",
  "contractName": "USDT",
  "sourceName": "contracts/USDT.sol",
  "abi": [
    {
      "inputs": [],
      "stateMutability": "nonpayable",
      "type": "constructor"
    },
    {
      "inputs": [
        {
          "internalType": "address",
          "name": "spender",
          "type": "address"
        },
        {
          "internalType": "uint256",
          "name": "allowance",
          "type": "uint256"
        },
        {
          "internalType": "uint256",
          "name": "needed",
          "type": "uint256"
        }
      ],
      "name": "ERC20InsufficientAllowance",
      "type": "error"
    },
    {
      "inputs": [
        {
          "internalType": "address",
          "name": "sender",
          "type": "address"
        },
        {
          "internalType": "uint256",
          "name": "balance",
          "type": "uint256"
        },
        {
          "internalType": "uint256",
          "name": "needed",
          "type": "uint256"
        }
      ],
      "name": "ERC20InsufficientBalance",
      "type": "error"
    },
    {
      "inputs": [
        {
          "internalType": "address",
          "name": "approver",
          "type": "address"
        }
      ],
      "name": "ERC20InvalidApprover",
      "type": "error"
    },
    {
      "inputs": [
        {
          "internalType": "address",
          "name": "receiver",
          "type": "address"
        }
      ],
      "name": "ERC20InvalidReceiver",
      "type": "error"
    },
    {
      "inputs": [
        {
          "internalType": "address",
          "name": "sender",
          "type": "address"
        }
      ],
      "name": "ERC20InvalidSender",
      "type": "error"
    },
    {
      "inputs": [
        {
          "internalType": "address",
          "name": "spender",
          "type": "address"
        }
      ],
      "name": "ERC20InvalidSpender",
      "type": "error"
    },
    {
      "inputs": [
        {
          "internalType": "address",
          "name": "owner",
          "type": "address"
        }
      ],
      "name": "OwnableInvalidOwner",
      "type": "error"
    },
    {
      "inputs": [
        {
          "internalType": "address",
          "name": "account",
          "type": "address"
        }
      ],
      "name": "OwnableUnauthorizedAccount",
      "type": "error"
    },
    {
      "anonymous": false,
      "inputs": [
        {
          "indexed": true,
          "internalType": "address",
          "name": "owner",
          "type": "address"
        },
        {
          "indexed": true,
          "internalType": "address",
          "name": "spender",
          "type": "address"
        },
        {
          "indexed": false,
          "internalType": "uint256",
          "name": "value",
          "type": "uint256"
        }
      ],
      "name": "Approval",
      "type": "event"
    },
    {
      "anonymous": false,
      "inputs": [
        {
          "indexed": true,
          "internalType": "address",
          "name": "previousOwner",
          "type": "address"
        },
        {
          "indexed": true,
          "internalType": "address",
          "name": "newOwner",
          "type": "address"
        }
      ],
      "name": "OwnershipTransferred",
      "type": "event"
    },
    {
      "anonymous": false,
      "inputs": [
        {
          "indexed": true,
          "internalType": "address",
          "name": "from",
          "type": "address"
        },
        {
          "indexed": true,
          "internalType": "address",
          "name": "to",
          "type": "address"
        },
        {
          "indexed": false,
          "internalType": "uint256",
          "name": "value",
          "type": "uint256"
        }
      ],
      "name": "Transfer",
      "type": "event"
    },
    {
      "inputs": [
        {
          "internalType": "address",
          "name": "owner",
          "type": "address"
        },
        {
          "internalType": "address",
          "name": "spender",
          "type": "address"
        }
      ],
      "name": "allowance",
      "outputs": [
        {
          "internalType": "uint256",
          "name": "",
          "type": "uint256"
        }
      ],
      "stateMutability": "view",
      "type": "function"
    },
    {
      "inputs": [
        {
          "internalType": "address",
          "name": "spender",
          "type": "address"
        },
        {
          "internalType": "uint256",
          "name": "value",
          "type": "uint256"
        }
      ],
      "name": "approve",
      "outputs": [
        {
          "internalType": "bool",
          "name": "",
          "type": "bool"
        }
      ],
      "stateMutability": "nonpayable",
      "type": "function"
    },
    {
      "inputs": [
        {
          "internalType": "address",
          "name": "account",
          "type": "address"
        }
      ],
      "name": "balanceOf",
      "outputs": [
        {
          "internalType": "uint256",
          "name": "",
          "type": "uint256"
        }
      ],
      "stateMutability": "view",
      "type": "function"
    },
    {
      "inputs": [
        {
          "internalType": "uint256",
          "name": "value",
          "type": "uint256"
        }
      ],
      "name": "burn",
      "outputs": [],
      "stateMutability": "nonpayable",
      "type": "function"
    },
    {
      "inputs": [
        {
          "internalType": "address",
          "name": "account",
          "type": "address"
        },
        {
          "internalType": "uint256",
          "name": "value",
          "type": "uint256"
        }
      ],
      "name": "burnFrom",
      "outputs": [],
      "stateMutability": "nonpayable",
      "type": "function"
    },
    {
      "inputs": [],
      "name": "decimals",
      "outputs": [
        {
          "internalType": "uint8",
          "name": "",
          "type": "uint8"
        }
      ],
      "stateMutability": "view",
      "type": "function"
    },
    {
      "inputs": [
        {
          "internalType": "address",
          "name": "to",
          "type": "address"
        },
        {
          "internalType": "uint256",
          "name": "amount",
          "type": "uint256"
        }
      ],
      "name": "mint",
      "outputs": [],
      "stateMutability": "nonpayable",
      "type": "function"
    },
    {
      "inputs": [],
      "name": "name",
      "outputs": [
        {
          "internalType": "string",
          "name": "",
          "type": "string"
        }
      ],
      "stateMutability": "view",
      "type": "function"
    },
    {
      "inputs": [],
      "name": "owner",
      "outputs": [
        {
          "internalType": "address",
          "name": "",
          "type": "address"
        }
      ],
      "stateMutability": "view",
      "type": "function"
    },
    {
      "inputs": [],
      "name": "renounceOwnership",
      "outputs": [],
      "stateMutability": "nonpayable",
      "type": "function"
    },
    {
      "inputs": [],
      "name": "symbol",
      "outputs": [
        {
          "internalType": "string",
          "name": "",
          "type": "string"
        }
      ],
      "stateMutability": "view",
      "type": "function"
    },
    {
      "inputs": [],
      "name": "totalSupply",
      "outputs": [
        {
          "internalType": "uint256",
          "name": "",
          "type": "uint256"
        }
      ],
      "stateMutability": "view",
      "type": "function"
    },
    {
      "inputs": [
        {
          "internalType": "address",
          "name": "to",
          "type": "address"
        },
        {
          "internalType": "uint256",
          "name": "value",
          "type": "uint256"
        }
      ],
      "name": "transfer",
      "outputs": [
        {
          "internalType": "bool",
          "name": "",
          "type": "bool"
        }
      ],
      "stateMutability": "nonpayable",
      "type": "function"
    },
    {
      "inputs": [
        {
          "internalType": "address",
          "name": "from",
          "type": "address"
        },
        {
          "internalType": "address",
          "name": "to",
          "type": "address"
        },
        {
          "internalType": "uint256",
          "name": "value",
          "type": "uint256"
        }
      ],
      "name": "transferFrom",
      "outputs": [
        {
          "internalType": "bool",
          "name": "",
          "type": "bool"
        }
      ],
      "stateMutability": "nonpayable",
      "type": "function"
    },
    {
      "inputs": [
        {
          "internalType": "address",
          "name": "newOwner",
          "type": "address"
        }
      ],
      "name": "transferOwnership",
      "outputs": [],
      "stateMutability": "nonpayable",
      "type": "function"
    },
    {
      "inputs": [
        {
          "internalType": "uint256",
          "name": "newSupply",
          "type": "uint256"
        }
      ],
      "name": "updateInitialSupply",
      "outputs": [],
      "stateMutability": "nonpayable",
      "type": "function"
    }
  ],
  "bytecode": "0x608060405261001261016260201b60201c565b60ff166302faf080610024919061051d565b63ffffffff1660065534801561003957600080fd5b50336040518060400160405280600481526020017f55736474000000000000000000000000000000000000000000000000000000008152506040518060400160405280600481526020017f555344540000000000000000000000000000000000000000000000000000000081525081600390816100b691906107aa565b5080600490816100c691906107aa565b505050600073ffffffffffffffffffffffffffffffffffffffff168173ffffffffffffffffffffffffffffffffffffffff160361013b5760006040517f1e4fbdf700000000000000000000000000000000000000000000000000000000815260040161013291906108bd565b60405180910390fd5b61014a8161016b60201b60201c565b5061015d3360065461023160201b60201c565b61096d565b60006012905090565b6000600560009054906101000a900473ffffffffffffffffffffffffffffffffffffffff16905081600560006101000a81548173ffffffffffffffffffffffffffffffffffffffff021916908373ffffffffffffffffffffffffffffffffffffffff1602179055508173ffffffffffffffffffffffffffffffffffffffff168173ffffffffffffffffffffffffffffffffffffffff167f8be0079c531659141344cd1fd0a4f28419497f9722a3daafe3b4186f6b6457e060405160405180910390a35050565b600073ffffffffffffffffffffffffffffffffffffffff168273ffffffffffffffffffffffffffffffffffffffff16036102a35760006040517fec442f0500000000000000000000000000000000000000000000000000000000815260040161029a91906108bd565b60405180910390fd5b6102b5600083836102b960201b60201c565b5050565b600073ffffffffffffffffffffffffffffffffffffffff168373ffffffffffffffffffffffffffffffffffffffff160361030b5780600260008282546102ff91906108d8565b925050819055506103de565b60008060008573ffffffffffffffffffffffffffffffffffffffff1673ffffffffffffffffffffffffffffffffffffffff16815260200190815260200160002054905081811015610397578381836040517fe450d38c00000000000000000000000000000000000000000000000000000000815260040161038e9392919061091b565b60405180910390fd5b8181036000808673ffffffffffffffffffffffffffffffffffffffff1673ffffffffffffffffffffffffffffffffffffffff16815260200190815260200160002081905550505b600073ffffffffffffffffffffffffffffffffffffffff168273ffffffffffffffffffffffffffffffffffffffff16036104275780600260008282540392505081905550610474565b806000808473ffffffffffffffffffffffffffffffffffffffff1673ffffffffffffffffffffffffffffffffffffffff168152602001908152602001600020600082825401925050819055505b8173ffffffffffffffffffffffffffffffffffffffff168373ffffffffffffffffffffffffffffffffffffffff167fddf252ad1be2c89b69c2b068fc378daa952ba7f163c4a11628f55a4df523b3ef836040516104d19190610952565b60405180910390a3505050565b600063ffffffff82169050919050565b7f4e487b7100000000000000000000000000000000000000000000000000000000600052601160045260246000fd5b6000610528826104de565b9150610533836104de565b9250828202610541816104de565b9150808214610553576105526104ee565b5b5092915050565b600081519050919050565b7f4e487b7100000000000000000000000000000000000000000000000000000000600052604160045260246000fd5b7f4e487b7100000000000000000000000000000000000000000000000000000000600052602260045260246000fd5b600060028204905060018216806105db57607f821691505b6020821081036105ee576105ed610594565b5b50919050565b60008190508160005260206000209050919050565b60006020601f8301049050919050565b600082821b905092915050565b6000600883026106567fffffffffffffffffffffffffffffffffffffffffffffffffffffffffffffffff82610619565b6106608683610619565b95508019841693508086168417925050509392505050565b6000819050919050565b6000819050919050565b60006106a76106a261069d84610678565b610682565b610678565b9050919050565b6000819050919050565b6106c18361068c565b6106d56106cd826106ae565b848454610626565b825550505050565b600090565b6106ea6106dd565b6106f58184846106b8565b505050565b5b818110156107195761070e6000826106e2565b6001810190506106fb565b5050565b601f82111561075e5761072f816105f4565b61073884610609565b81016020851015610747578190505b61075b61075385610609565b8301826106fa565b50505b505050565b600082821c905092915050565b600061078160001984600802610763565b1980831691505092915050565b600061079a8383610770565b9150826002028217905092915050565b6107b38261055a565b67ffffffffffffffff8111156107cc576107cb610565565b5b6107d682546105c3565b6107e182828561071d565b600060209050601f8311600181146108145760008415610802578287015190505b61080c858261078e565b865550610874565b601f198416610822866105f4565b60005b8281101561084a57848901518255600182019150602085019450602081019050610825565b868310156108675784890151610863601f891682610770565b8355505b6001600288020188555050505b505050505050565b600073ffffffffffffffffffffffffffffffffffffffff82169050919050565b60006108a78261087c565b9050919050565b6108b78161089c565b82525050565b60006020820190506108d260008301846108ae565b92915050565b60006108e382610678565b91506108ee83610678565b9250828201905080821115610906576109056104ee565b5b92915050565b61091581610678565b82525050565b600060608201905061093060008301866108ae565b61093d602083018561090c565b61094a604083018461090c565b949350505050565b6000602082019050610967600083018461090c565b92915050565b61143d8061097c6000396000f3fe608060405234801561001057600080fd5b50600436106101005760003560e01c806370a082311161009757806395d89b411161006657806395d89b4114610287578063a9059cbb146102a5578063dd62ed3e146102d5578063f2fde38b1461030557610100565b806370a0823114610213578063715018a61461024357806379cc67901461024d5780638da5cb5b1461026957610100565b8063313ce567116100d3578063313ce567146101a157806339f14b88146101bf57806340c10f19146101db57806342966c68146101f757610100565b806306fdde0314610105578063095ea7b31461012357806318160ddd1461015357806323b872dd14610171575b600080fd5b61010d610321565b60405161011a9190610f9e565b60405180910390f35b61013d60048036038101906101389190611059565b6103b3565b60405161014a91906110b4565b60405180910390f35b61015b6103d6565b60405161016891906110de565b60405180910390f35b61018b600480360381019061018691906110f9565b6103e0565b60405161019891906110b4565b60405180910390f35b6101a961040f565b6040516101b69190611168565b60405180910390f35b6101d960048036038101906101d49190611183565b610418565b005b6101f560048036038101906101f09190611059565b61048d565b005b610211600480360381019061020c9190611183565b6104a3565b005b61022d600480360381019061022891906111b0565b6104b7565b60405161023a91906110de565b60405180910390f35b61024b6104ff565b005b61026760048036038101906102629190611059565b610513565b005b610271610533565b60405161027e91906111ec565b60405180910390f35b61028f61055d565b60405161029c9190610f9e565b60405180910390f35b6102bf60048036038101906102ba9190611059565b6105ef565b6040516102cc91906110b4565b60405180910390f35b6102ef60048036038101906102ea9190611207565b610612565b6040516102fc91906110de565b60405180910390f35b61031f600480360381019061031a91906111b0565b610699565b005b60606003805461033090611276565b80601f016020809104026020016040519081016040528092919081815260200182805461035c90611276565b80156103a95780601f1061037e576101008083540402835291602001916103a9565b820191906000526020600020905b81548152906001019060200180831161038c57829003601f168201915b5050505050905090565b6000806103be61071f565b90506103cb818585610727565b600191505092915050565b6000600254905090565b6000806103eb61071f565b90506103f8858285610739565b6104038585856107cd565b60019150509392505050565b60006012905090565b6104206108c1565b600061042a6103d6565b905080821161046e576040517f08c379a000000000000000000000000000000000000000000000000000000000815260040161046590611319565b60405180910390fd5b6000818361047c9190611368565b90506104883382610948565b505050565b6104956108c1565b61049f8282610948565b5050565b6104b46104ae61071f565b826109ca565b50565b60008060008373ffffffffffffffffffffffffffffffffffffffff1673ffffffffffffffffffffffffffffffffffffffff168152602001908152602001600020549050919050565b6105076108c1565b6105116000610a4c565b565b6105258261051f61071f565b83610739565b61052f82826109ca565b5050565b6000600560009054906101000a900473ffffffffffffffffffffffffffffffffffffffff16905090565b60606004805461056c90611276565b80601f016020809104026020016040519081016040528092919081815260200182805461059890611276565b80156105e55780601f106105ba576101008083540402835291602001916105e5565b820191906000526020600020905b8154815290600101906020018083116105c857829003601f168201915b5050505050905090565b6000806105fa61071f565b90506106078185856107cd565b600191505092915050565b6000600160008473ffffffffffffffffffffffffffffffffffffffff1673ffffffffffffffffffffffffffffffffffffffff16815260200190815260200160002060008373ffffffffffffffffffffffffffffffffffffffff1673ffffffffffffffffffffffffffffffffffffffff16815260200190815260200160002054905092915050565b6106a16108c1565b600073ffffffffffffffffffffffffffffffffffffffff168173ffffffffffffffffffffffffffffffffffffffff16036107135760006040517f1e4fbdf700000000000000000000000000000000000000000000000000000000815260040161070a91906111ec565b60405180910390fd5b61071c81610a4c565b50565b600033905090565b6107348383836001610b12565b505050565b60006107458484610612565b90507fffffffffffffffffffffffffffffffffffffffffffffffffffffffffffffffff81146107c757818110156107b7578281836040517ffb8f41b20000000000000000000000000000000000000000000000000000000081526004016107ae9392919061139c565b60405180910390fd5b6107c684848484036000610b12565b5b50505050565b600073ffffffffffffffffffffffffffffffffffffffff168373ffffffffffffffffffffffffffffffffffffffff160361083f5760006040517f96c6fd1e00000000000000000000000000000000000000000000000000000000815260040161083691906111ec565b60405180910390fd5b600073ffffffffffffffffffffffffffffffffffffffff168273ffffffffffffffffffffffffffffffffffffffff16036108b15760006040517fec442f050000000000000000000000000000000000000000000000000000000081526004016108a891906111ec565b60405180910390fd5b6108bc838383610ce9565b505050565b6108c961071f565b73ffffffffffffffffffffffffffffffffffffffff166108e7610533565b73ffffffffffffffffffffffffffffffffffffffff16146109465761090a61071f565b6040517f118cdaa700000000000000000000000000000000000000000000000000000000815260040161093d91906111ec565b60405180910390fd5b565b600073ffffffffffffffffffffffffffffffffffffffff168273ffffffffffffffffffffffffffffffffffffffff16036109ba5760006040517fec442f050000000000000000000000000000000000000000000000000000000081526004016109b191906111ec565b60405180910390fd5b6109c660008383610ce9565b5050565b600073ffffffffffffffffffffffffffffffffffffffff168273ffffffffffffffffffffffffffffffffffffffff1603610a3c5760006040517f96c6fd1e000000000000000000000000000000000000000000000000000000008152600401610a3391906111ec565b60405180910390fd5b610a4882600083610ce9565b5050565b6000600560009054906101000a900473ffffffffffffffffffffffffffffffffffffffff16905081600560006101000a81548173ffffffffffffffffffffffffffffffffffffffff021916908373ffffffffffffffffffffffffffffffffffffffff1602179055508173ffffffffffffffffffffffffffffffffffffffff168173ffffffffffffffffffffffffffffffffffffffff167f8be0079c531659141344cd1fd0a4f28419497f9722a3daafe3b4186f6b6457e060405160405180910390a35050565b600073ffffffffffffffffffffffffffffffffffffffff168473ffffffffffffffffffffffffffffffffffffffff1603610b845760006040517fe602df05000000000000000000000000000000000000000000000000000000008152600401610b7b91906111ec565b60405180910390fd5b600073ffffffffffffffffffffffffffffffffffffffff168373ffffffffffffffffffffffffffffffffffffffff1603610bf65760006040517f94280d62000000000000000000000000000000000000000000000000000000008152600401610bed91906111ec565b60405180910390fd5b81600160008673ffffffffffffffffffffffffffffffffffffffff1673ffffffffffffffffffffffffffffffffffffffff16815260200190815260200160002060008573ffffffffffffffffffffffffffffffffffffffff1673ffffffffffffffffffffffffffffffffffffffff168152602001908152602001600020819055508015610ce3578273ffffffffffffffffffffffffffffffffffffffff168473ffffffffffffffffffffffffffffffffffffffff167f8c5be1e5ebec7d5bd14f71427d1e84f3dd0314c0f7b2291e5b200ac8c7c3b92584604051610cda91906110de565b60405180910390a35b50505050565b600073ffffffffffffffffffffffffffffffffffffffff168373ffffffffffffffffffffffffffffffffffffffff1603610d3b578060026000828254610d2f91906113d3565b92505081905550610e0e565b60008060008573ffffffffffffffffffffffffffffffffffffffff1673ffffffffffffffffffffffffffffffffffffffff16815260200190815260200160002054905081811015610dc7578381836040517fe450d38c000000000000000000000000000000000000000000000000000000008152600401610dbe9392919061139c565b60405180910390fd5b8181036000808673ffffffffffffffffffffffffffffffffffffffff1673ffffffffffffffffffffffffffffffffffffffff16815260200190815260200160002081905550505b600073ffffffffffffffffffffffffffffffffffffffff168273ffffffffffffffffffffffffffffffffffffffff1603610e575780600260008282540392505081905550610ea4565b806000808473ffffffffffffffffffffffffffffffffffffffff1673ffffffffffffffffffffffffffffffffffffffff168152602001908152602001600020600082825401925050819055505b8173ffffffffffffffffffffffffffffffffffffffff168373ffffffffffffffffffffffffffffffffffffffff167fddf252ad1be2c89b69c2b068fc378daa952ba7f163c4a11628f55a4df523b3ef83604051610f0191906110de565b60405180910390a3505050565b600081519050919050565b600082825260208201905092915050565b60005b83811015610f48578082015181840152602081019050610f2d565b60008484015250505050565b6000601f19601f8301169050919050565b6000610f7082610f0e565b610f7a8185610f19565b9350610f8a818560208601610f2a565b610f9381610f54565b840191505092915050565b60006020820190508181036000830152610fb88184610f65565b905092915050565b600080fd5b600073ffffffffffffffffffffffffffffffffffffffff82169050919050565b6000610ff082610fc5565b9050919050565b61100081610fe5565b811461100b57600080fd5b50565b60008135905061101d81610ff7565b92915050565b6000819050919050565b61103681611023565b811461104157600080fd5b50565b6000813590506110538161102d565b92915050565b600080604083850312156110705761106f610fc0565b5b600061107e8582860161100e565b925050602061108f85828601611044565b9150509250929050565b60008115159050919050565b6110ae81611099565b82525050565b60006020820190506110c960008301846110a5565b92915050565b6110d881611023565b82525050565b60006020820190506110f360008301846110cf565b92915050565b60008060006060848603121561111257611111610fc0565b5b60006111208682870161100e565b93505060206111318682870161100e565b925050604061114286828701611044565b9150509250925092565b600060ff82169050919050565b6111628161114c565b82525050565b600060208201905061117d6000830184611159565b92915050565b60006020828403121561119957611198610fc0565b5b60006111a784828501611044565b91505092915050565b6000602082840312156111c6576111c5610fc0565b5b60006111d48482850161100e565b91505092915050565b6111e681610fe5565b82525050565b600060208201905061120160008301846111dd565b92915050565b6000806040838503121561121e5761121d610fc0565b5b600061122c8582860161100e565b925050602061123d8582860161100e565b9150509250929050565b7f4e487b7100000000000000000000000000000000000000000000000000000000600052602260045260246000fd5b6000600282049050600182168061128e57607f821691505b6020821081036112a1576112a0611247565b5b50919050565b7f4e657720737570706c79206d7573742062652067726561746572207468616e2060008201527f7468652063757272656e7420737570706c790000000000000000000000000000602082015250565b6000611303603283610f19565b915061130e826112a7565b604082019050919050565b60006020820190508181036000830152611332816112f6565b9050919050565b7f4e487b7100000000000000000000000000000000000000000000000000000000600052601160045260246000fd5b600061137382611023565b915061137e83611023565b925082820390508181111561139657611395611339565b5b92915050565b60006060820190506113b160008301866111dd565b6113be60208301856110cf565b6113cb60408301846110cf565b949350505050565b60006113de82611023565b91506113e983611023565b925082820190508082111561140157611400611339565b5b9291505056fea26469706673582212208c75dfb1a5816c33e228e26057b77418875892a58e690add3fb8bf014a2c4f7164736f6c634300081b0033",
  "linkReferences": {},
  "deployedLinkReferences": {}
}